:100000000C9463000C948B000C948B000C948B006C
:100010000C948B000C948B000C948B000C948B0034
:100020000C948B000C948B000C948B000C948B0024
:100030000C948B000C948B000C948B000C948B0014
:100040000C9412030C948B000C9401050C944F0536
:100050000C948B000C948B000C948B000C948B00F4
:100060000C948B000C948B000000000024002700EF
:100070002A0000000000250028002B0000000000DE
:1000800023002600290004040404040404040202DA
:100090000202020203030303030301020408102007
:1000A0004080010204081020010204081020000012
:1000B0000007000201000003040600000000000029
:1000C00000008D00BB0611241FBECFEFD8E0DEBFBD
:1000D000CDBF11E0A0E0B1E0EEE9F1E102C0059092
:1000E0000D92A633B107D9F712E0A6E3B1E001C043
:1000F0001D92A030B107E1F710E0C6ECD0E004C0DB
:100100002297FE010E94C908C23CD107C9F70E948C
:1001100011070C94CD080C940000CF92EF920F932E
:1001200088E391E067E046E025E004E053E0E52E57
:1001300032E0C32E0E94D9020F91EF90CF90089524
:100140000F931F938AE00E94AD0490933701809330
:1001500036018EE00E94F80362E070E00E947E08A3
:10016000162F072F8091360190913701892BF9F4D2
:1001700088E391E00E941B028EED91E06AE070E05E
:100180004AE050E00E942A088EED91E0612F702F26
:100190004AE050E00E943D0888E391E060E040E0E2
:1001A0000E94EC0188E391E060E071E01EC088E30A
:1001B00091E00E941B028EED91E064E170E04AE064
:1001C00050E00E942A088EED91E0612F702F4AE0E6
:1001D00050E00E943D0888E391E060E040E00E942A
:1001E000EC0188E391E069E071E00E945C0888E33B
:1001F00091E060E041E00E94EC0188E391E0612F32
:10020000702F4AE050E00E942A0862E370E080E02C
:1002100090E00E945A031F910F91089588E391E0A6
:1002200060E142E020E00E9423028EED91E040E890
:1002300055E260E070E00E948A058AE062E00E9478
:100240001A0408950F931F938C01FC01868160E0CE
:100250000E94590481E090E00E94B303F801868176
:1002600061E00E94590481E090E00E94B303F8012C
:10027000868160E00E94590484E690E00E94B30306
:100280001F910F910895CF92DF92EF92FF920F93FB
:100290001F93CF93DF93D82EC92E282F392FC90152
:1002A0008C01C0E0D0E0E62EFF24F801878161E0F8
:1002B0000E941A04B7010C2E02C0759567950A9426
:1002C000E2F76170F80187810E94590421960F5F5F
:1002D0001F4FC830D10549F78D2D9C2D0E9422015A
:1002E000DF91CF911F910F91FF90EF90DF90CF9012
:1002F0000895CF92DF92EF92FF920F931F93CF93C7
:10030000DF93D82EC92E282F392FC9018C01C0E0C8
:10031000D0E0E62EFF24F801878161E00E941A04F4
:10032000B7010C2E02C0759567950A94E2F76170CB
:10033000F80187810E94590421960F5F1F4FC43036
:10034000D10549F78D2D9C2D0E942201DF91CF917F
:100350001F910F91FF90EF90DF90CF9008951F9322
:10036000CF93DF93EC01162F8C81642F0E945904E8
:100370008D818F3F19F060E00E9459048F8584FFC2
:1003800005C0CE01612F0E9443010EC0612F70E0B5
:1003900084E0759567958A95E1F7CE010E94790111
:1003A000CE01612F0E947901DF91CF911F910895B5
:1003B00041E00E94AF0181E090E0089540E00E949A
:1003C000AF010895FC016089862F8460808B6C608A
:1003D000CF010E94DE010895DF93CF93CDB7DEB742
:1003E00028970FB6F894DEBF0FBECDBF9C01FE016B
:1003F0003196AEE1B1E088E00D9001928150E1F7D5
:10040000F9018389481710F0482F4150E42FF0E09C
:10041000EE0FFF1FEC0FFD1F8181680F6068C9019F
:100420000E94DE0128960FB6F894DEBF0FBECDBF46
:10043000CF91DF91089561E00E94DE0180ED97E0A9
:100440000E94B3030895CF93DF93EC01423018F07C
:100450008F8588608F874B8B1C8A222329F041303F
:1004600019F48F8584608F8780E593EC0E94B30335
:100470008C8160E00E9459048E8160E00E945904E2
:100480008D818F3F19F060E00E9459046F8564FDF3
:100490001DC0CE0163E00E94790184E991E10E94D0
:1004A000B303CE0163E00E94790184E991E10E94E7
:1004B000B303CE0163E00E94790186E990E00E94D7
:1004C000B303CE0162E00E94790116C06062CE01E2
:1004D0000E94DE0184E991E10E94B3036F856062AE
:1004E000CE010E94DE0186E990E00E94B3036F8591
:1004F0006062CE010E94DE016F856062CE010E94C3
:10050000DE0184E0888BCE010E94E201CE010E94D0
:100510001B0282E0898BCE0166E00E94DE01DF9142
:10052000CF9108956F927F928F92AF92CF92EF9278
:100530000F931F93DF93CF93CDB7DEB73C01162FF8
:10054000842FF301448325830683E782C086A18636
:1005500082869D8593879E8594879F8595879889B8
:10056000968761E00E941A04F30185818F3F19F09C
:1005700061E00E941A04F301868161E00E941A047E
:10058000112319F0F301178603C080E1F301878777
:10059000C30160E141E020E00E942302CF91DF919E
:1005A0001F910F91EF90CF90AF908F907F906F90B1
:1005B00008958F92AF92CF92EF920F931F93CF93A4
:1005C000DF93DC01362F542F722F102FAE2C8C2C82
:1005D00013961C921E9212978AE191E011969C93B9
:1005E0008E9300D000D0EDB7FEB73196CDB7DEB711
:1005F0001982118212821382CD0161E0432F2FEF05
:10060000052FE72EC12E0E9492020F900F900F909F
:100610000F90DF91CF911F910F91EF90CF90AF90FE
:100620008F9008951F920F920FB60F9211242F935F
:100630003F938F939F93AF93BF938091510190917C
:100640005201A0915301B09154013091550101968E
:10065000A11DB11D232F2D5F2D3720F02D570196A1
:10066000A11DB11D2093550180935101909352011A
:10067000A0935301B093540180914D0190914E018C
:10068000A0914F01B09150010196A11DB11D809321
:100690004D0190934E01A0934F01B0935001BF9133
:1006A000AF919F918F913F912F910F900FBE0F901F
:1006B0001F9018959B01AC017FB7F89480914D0174
:1006C00090914E01A0914F01B091500166B5A89B49
:1006D00005C06F3F19F00196A11DB11D7FBFBA2F54
:1006E000A92F982F8827860F911DA11DB11D62E0AB
:1006F000880F991FAA1FBB1F6A95D1F7BC012DC097
:10070000FFB7F89480914D0190914E01A0914F0157
:10071000B0915001E6B5A89B05C0EF3F19F00196D6
:10072000A11DB11DFFBFBA2FA92F982F88278E0FAB
:10073000911DA11DB11DE2E0880F991FAA1FBB1FCB
:10074000EA95D1F7861B970B885E9340C8F221503B
:1007500030404040504068517C4F211531054105E3
:10076000510571F60895019739F0880F991F880F88
:10077000991F02970197F1F70895789484B58260E4
:1007800084BD84B5816084BD85B5826085BD85B535
:10079000816085BDEEE6F0E0808181608083E1E8E4
:1007A000F0E010828081826080838081816080831C
:1007B000E0E8F0E0808181608083E1EBF0E080811F
:1007C00084608083E0EBF0E0808181608083EAE7F1
:1007D000F0E080818460808380818260808380817A
:1007E000816080838081806880831092C100089539
:1007F000982F8E3008F09E50977080911501829549
:10080000880F880F807C892B80937C0080917A00F0
:10081000806480937A0080917A0086FDFCCF2091DD
:10082000780040917900942F80E030E0282B392B1C
:10083000C9010895CF93DF93482F50E0CA0186562F
:100840009F4FFC0134914A575F4FFA0184918823EE
:1008500069F190E0880F991FFC01E859FF4FA591BD
:10086000B491FC01EE58FF4FC591D491662351F429
:100870002FB7F8948C91932F909589238C9388812E
:1008800089230BC0623061F42FB7F8948C91932FB9
:10089000909589238C938881832B88832FBF06C0F2
:1008A0009FB7F8948C91832B8C939FBFDF91CF914E
:1008B0000895482F50E0CA0182559F4FFC012491B2
:1008C000CA0186569F4FFC0194914A575F4FFA0127
:1008D0003491332309F440C0222351F1233071F0C5
:1008E000243028F42130A1F0223011F514C0263034
:1008F000B1F02730C1F02430D9F404C080918000D9
:100900008F7703C0809180008F7D8093800010C01E
:1009100084B58F7702C084B58F7D84BD09C0809176
:10092000B0008F7703C08091B0008F7D8093B000BE
:10093000E32FF0E0EE0FFF1FEE58FF4FA591B491AB
:100940002FB7F894662321F48C919095892302C0E7
:100950008C91892B8C932FBF0895682F70E0CB0169
:1009600082559F4FFC012491CB0186569F4FFC017D
:1009700044916A577F4FFB019491992319F420E029
:1009800030E03CC0222351F1233071F0243028F4B0
:100990002130A1F0223011F514C02630B1F02730FB
:1009A000C1F02430D9F404C0809180008F7703C057
:1009B000809180008F7D8093800010C084B58F77F8
:1009C00002C084B58F7D84BD09C08091B0008F774F
:1009D00003C08091B0008F7D8093B000892F90E09C
:1009E000880F991F84589F4FFC01A591B4918C9159
:1009F00020E030E0842311F021E030E0C9010895C7
:100A000008951F920F920FB60F9211242F933F93C8
:100A10004F938F939F93EF93FF938091C00082FD3C
:100A20001DC04091C60020919601309197012F5F23
:100A30003F4F2F7330708091980190919901281742
:100A4000390771F0E0919601F0919701EA5AFE4F53
:100A50004083309397012093960102C08091C60095
:100A6000FF91EF919F918F914F913F912F910F9017
:100A70000FBE0F901F901895E091EA01F091EB01E5
:100A8000E05CFF4F8191919120813181821B930B1A
:100A90008F739070892B11F00E94000508951F92AA
:100AA0000F920FB60F9211242F933F938F939F9322
:100AB000EF93FF932091DA013091DB018091DC010B
:100AC0009091DD012817390731F48091C1008F7DA5
:100AD0008093C10014C0E091DC01F091DD01E65685
:100AE000FE4F20818091DC019091DD0101968F7392
:100AF00090709093DD018093DC012093C600FF91FC
:100B0000EF919F918F913F912F910F900FBE0F907A
:100B10001F901895AF92BF92DF92EF92FF920F93C2
:100B20001F93CF93DF93EC017A018B01DD244030DA
:100B300081EE580780E0680780E0780711F0DD2437
:100B4000D39491E0A92EB12CEC89FD89DD2069F0C8
:100B5000C50108A002C0880F991F0A94E2F780839C
:100B600060E079E08DE390E005C0108260E874E811
:100B70008EE190E0A80197010E9491082150304039
:100B800040405040569547953795279580E1203055
:100B9000380720F0DD2011F0DD24D6CFE889F9896F
:100BA0003083EA89FB89208319A2EE89FF8940817D
:100BB00021E030E0C9010C8C02C0880F991F0A9413
:100BC000E2F7482B4083EE89FF894081C9010D8CF3
:100BD00002C0880F991F0A94E2F7482B4083EE89E0
:100BE000FF894081C9010E8C02C0880F991F0A94A9
:100BF000E2F7482B4083EE89FF8980810F8C02C089
:100C0000220F331F0A94E2F7209528232083DF91D7
:100C1000CF911F910F91FF90EF90DF90BF90AF9019
:100C20000895DC011C96ED91FC911D97E05CFF4F4F
:100C30002191319180819181281B390B2F73307064
:100C4000C9010895DC011C96ED91FC911D97E05CB3
:100C5000FF4F20813181E054F040DF01AE5BBF4F98
:100C60008D919C9111972817390719F42FEF3FEFB9
:100C700007C08D919C91E80FF91F8081282F30E0EB
:100C8000C9010895DC011C96ED91FC911D97E05C73
:100C9000FF4F20813181E054F040DF01AE5BBF4F58
:100CA0008D919C9111972817390719F42FEF3FEF79
:100CB00010C08D919C911197E80FF91F20818D91A3
:100CC0009C91119701968F73907011969C938E93BF
:100CD00030E0C9010895DC0191968C9191978823A9
:100CE00039F05496ED91FC915597808186FFF9CFAC
:100CF00091961C920895CF93DF93EC01EE85FF85CA
:100D0000E05CFF4F20813181E054F0402F5F3F4F86
:100D10002F733070DF01AE5BBF4F8D919C911197A7
:100D200028173907D1F3E05CFF4F80819181E054AF
:100D3000F040E80FF91F6083EE85FF85E05CFF4F10
:100D400031832083EE89FF89208181E090E00F8C40
:100D500002C0880F991F0A94E2F7282B208381E0B4
:100D600089A3EC89FD8980818064808381E090E0A3
:100D7000DF91CF9108951092E1011092E00188EE89
:100D800093E0A0E0B0E08093E2019093E301A093B0
:100D9000E401B093E5018AE291E09093DF01809352
:100DA000DE0186E591E09093EB018093EA018AE908
:100DB00091E09093ED018093EC0185EC90E09093AD
:100DC000EF018093EE0184EC90E09093F101809329
:100DD000F00180EC90E09093F3018093F20181ECBC
:100DE00090E09093F5018093F40182EC90E0909371
:100DF000F7018093F60186EC90E09093F9018093DF
:100E0000F80184E08093FA0183E08093FB0187E09E
:100E10008093FC0185E08093FD0181E08093FE01D9
:100E20000895CF93DF930E94BD030E940E01CCE38F
:100E3000D5E00E94A0002097E1F30E943C05F9CF85
:100E4000CF92DF92EF92FF920F931F93CF93DF9396
:100E50007C016B018A01C0E0D0E00FC0D6016D912A
:100E60006D01D701ED91FC910190F081E02DC7015A
:100E70000995C80FD91F015010400115110571F7D0
:100E8000CE01DF91CF911F910F91FF90EF90DF90F6
:100E9000CF900895EF92FF920F931F938C01DC0186
:100EA000ED91FC910190F081E02D6DE009957C01C0
:100EB000D801ED91FC910190F081E02DC8016AE02C
:100EC00009959C012E0D3F1DC9011F910F91FF90A7
:100ED000EF900895CF93DF93EC016115710519F43C
:100EE00020E030E00FC0DB010D900020E9F7119702
:100EF000A61BB70BE881F9810280F381E02DAD01DB
:100F000009959C01C901DF91CF9108954F925F929D
:100F10007F928F929F92AF92BF92CF92DF92EF9289
:100F2000FF920F931F93DF93CF93CDB7DEB7A197B7
:100F30000FB6F894DEBF0FBECDBF2C01742ECB01CF
:100F4000223008F42AE019A231E2C32ED12CCC0EB3
:100F5000DD1E822E9924AA24BB24672D752FA5019E
:100F600094010E94910879018A01C801B701A50185
:100F700094010E945F08472D461B0894C108D108C0
:100F80004A3014F4405D01C0495CF6014083E1142D
:100F9000F1040105110521F07E2C5F2DC801DDCF84
:100FA000C201B6010E946A07A1960FB6F894DEBF8F
:100FB0000FBECDBFCF91DF911F910F91FF90EF90AA
:100FC000DF90CF90BF90AF909F908F907F905F9079
:100FD0004F900895CF92DF92EF92FF920F931F935D
:100FE000CF93DF93EC016A017B012115310541F4B8
:100FF000E881F9810190F081E02D642F09951FC0EF
:101000002A303105D1F477FF17C0E881F9810190CA
:10101000F081E02D6DE209958C0144275527BA0136
:101020004C195D096E097F09CE012AE00E948607EE
:101030009801280F391F04C02AE00E9486079C01EE
:10104000C901DF91CF911F910F91FF90EF90DF9039
:10105000CF900895EF92FF920F931F937B019A0117
:101060000027F7FC0095102FB801A7010E94EA079E
:101070001F910F91FF90EF900895CF92DF92EF9222
:10108000FF920F931F936C017B019A010027F7FCDD
:101090000095102FB801A7010E94EA078C01C60134
:1010A0000E944A07080F191FC8011F910F91FF9056
:1010B000EF90DF90CF9008950E946A070895629F95
:1010C000D001739FF001829FE00DF11D649FE00D40
:1010D000F11D929FF00D839FF00D749FF00D659FA1
:1010E000F00D9927729FB00DE11DF91F639FB00DA0
:1010F000E11DF91FBD01CF011124089597FB092EB1
:1011000007260AD077FD04D02ED006D000201AF48E
:10111000709561957F4F0895F6F7909581959F4F53
:101120000895A1E21A2EAA1BBB1BFD010DC0AA1F28
:10113000BB1FEE1FFF1FA217B307E407F50720F040
:10114000A21BB30BE40BF50B661F771F881F991FBB
:101150001A9469F760957095809590959B01AC0104
:10116000BD01CF010895AA1BBB1B51E107C0AA1FF7
:10117000BB1FA617B70710F0A61BB70B881F991F38
:101180005A95A9F780959095BC01CD010895EE0F71
:0E119000FF1F0590F491E02D0994F894FFCF15
:10119E005052455353455344004E4F5420505245E0
:1011AE0053534544000100000000D8012007000001
:1011BE00400014005400000000007B0620071106BA
:0611CE00420622066B063A
:00000001FF
