:100000000C9464000C948C000C948C000C948C0068
:100010000C948C000C948C000C948C000C948C0030
:100020000C948C000C948C000C948C000C948C0020
:100030000C948C000C948C000C948C000C948C0010
:100040000C948D030C948C000C94AD040C94FB0464
:100050000C948C000C948C000C948C000C948C00F0
:100060000C948C000C948C000000000024002700ED
:100070002A0000000000250028002B0000000000DE
:1000800023002600290004040404040404040202DA
:100090000202020203030303030301020408102007
:1000A0004080010204081020010204081020000012
:1000B0000007000201000003040600000000000029
:1000C0000000CE006706C70011241FBECFEFD8E0A6
:1000D000DEBFCDBF11E0A0E0B1E0E0E7F5E102C096
:1000E00005900D92A832B107D9F711E0A8E2B1E06E
:1000F00001C01D92AD3FB107E1F710E0C6ECD0E0C2
:1001000004C02297FE010E94A70AC23CD107C9F78A
:100110000E94BD060C94AB0A0C940000FB01DC01AC
:1001200002C001900D9241505040D8F70895FB0154
:10013000DC0101900D920020E1F70895CF92EF923B
:100140000F9381309105B1F46F5F7F4FE1F488E246
:1001500091E067E046E025E004E053E0E52E32E080
:10016000C32E0E9454038DE391E060E071E00E9491
:10017000340809C0892B39F46F5F7F4F21F48DE378
:1001800091E00E9467080F91EF90CF90089580E072
:1001900090E06FEF7FEF0E949E00089581E090E075
:1001A0006FEF7FEF0E949E0008950F931F9301E071
:1001B0000EC086ED91E00E94EE05182F8DE391E0D0
:1001C000612F0E94EE071D3011F40093440186ED6B
:1001D00091E00E94BD05181619065CF31F910F915E
:1001E000089580914401882309F490C088E291E049
:1001F00060E040E00E9467028DE391E060E070E023
:100200000E946507FC0188E291E060810E94F60689
:100210008DE391E061E070E00E946507FC0188E2F7
:1002200091E060810E94F60688E291E060E041E0A2
:100230000E9467028DE391E062E070E00E94650732
:10024000FC0188E291E060810E94F6068DE391E076
:1002500063E070E00E946507FC0188E291E0608144
:100260000E94F6068DE391E060E070E00E94650771
:10027000FC0180818A30E1F588E291E060E040E0B5
:100280000E9467028DE391E061E070E00E946507E3
:10029000FC0188E291E060810E94F6068DE391E026
:1002A00062E070E00E946507FC0188E291E06081F5
:1002B0000E94F60688E291E060E041E00E94670259
:1002C0008DE391E063E070E00E946507FC0188E245
:1002D00091E060810E94F6068DE391E064E070E0B9
:1002E0000E946507FC0188E291E060810E94F606A9
:1002F00086ED91E06DE371E00E9451078DE391E09E
:1003000060E071E00E944E0810924401089588E276
:1003100091E060E142E020E00E949E0286ED91E0E3
:1003200040E855E260E070E00E9436058DE391E020
:1003300068EC70E00E94A50708950F931F938C014D
:10034000FC01868160E00E94590481E090E00E94F7
:10035000D503F801868161E00E94590481E090E0B4
:100360000E94D503F801868160E00E94590484E66A
:1003700090E00E94D5031F910F910895CF92DF92D4
:10038000EF92FF920F931F93CF93DF93D82EC92E36
:10039000282F392FC9018C01C0E0D0E0E62EFF24C0
:1003A000F801878161E00E941A04B7010C2E02C097
:1003B000759567950A94E2F76170F80187810E944C
:1003C000590421960F5F1F4FC830D10549F78D2D75
:1003D0009C2D0E949D01DF91CF911F910F91FF9065
:1003E000EF90DF90CF900895CF92DF92EF92FF923F
:1003F0000F931F93CF93DF93D82EC92E282F392F19
:10040000C9018C01C0E0D0E0E62EFF24F80187810D
:1004100061E00E941A04B7010C2E02C07595679521
:100420000A94E2F76170F80187810E9459042196CD
:100430000F5F1F4FC430D10549F78D2D9C2D0E94B1
:100440009D01DF91CF911F910F91FF90EF90DF9071
:10045000CF9008951F93CF93DF93EC01162F8C81DB
:10046000642F0E9459048D818F3F19F060E00E9433
:1004700059048F8584FF05C0CE01612F0E94BE0103
:100480000EC0612F70E084E0759567958A95E1F75D
:10049000CE010E94F401CE01612F0E94F401DF9190
:1004A000CF911F91089541E00E942A0281E090E0DF
:1004B000089540E00E942A020895FC016089862F79
:1004C0008460808B6C60CF010E9459020895DF9395
:1004D000CF93CDB7DEB728970FB6F894DEBF0FBE27
:1004E000CDBF9C01FE013196AFE0B1E088E00D90F8
:1004F00001928150E1F7F9018389481710F0482FE4
:100500004150E42FF0E0EE0FFF1FEC0FFD1F818143
:10051000680F6068C9010E94590228960FB6F894C6
:10052000DEBF0FBECDBFCF91DF91089561E00E9485
:10053000590280ED97E00E94D5030895CF93DF9391
:10054000EC01423018F08F8588608F874B8B1C8AB6
:10055000222329F0413019F48F8584608F8780E54C
:1005600093EC0E94D5038C8160E00E9459048E8137
:1005700060E00E9459048D818F3F19F060E00E9475
:1005800059046F8564FD1DC0CE0163E00E94F40133
:1005900084E991E10E94D503CE0163E00E94F40159
:1005A00084E991E10E94D503CE0163E00E94F40149
:1005B00086E990E00E94D503CE0162E00E94F4013A
:1005C00016C06062CE010E94590284E991E10E9446
:1005D000D5036F856062CE010E94590286E990E0E2
:1005E0000E94D5036F856062CE010E9459026F851B
:1005F0006062CE010E94590284E0888BCE010E9485
:100600005D02CE010E94960282E0898BCE0166E0F7
:100610000E945902DF91CF9108956F927F928F923D
:10062000AF92CF92EF920F931F93DF93CF93CDB7FB
:10063000DEB73C01162F842FF30144832583068304
:10064000E782C086A18682869D8593879E85948752
:100650009F8595879889968761E00E941A04F30127
:1006600085818F3F19F061E00E941A04F3018681B1
:1006700061E00E941A04112319F0F301178603C0E8
:1006800080E1F3018787C30160E141E020E00E943F
:100690009E02CF91DF911F910F91EF90CF90AF907D
:1006A0008F907F906F9008958F92AF92CF92EF923C
:1006B0000F931F93CF93DF93DC01362F542F722FAC
:1006C000102FAE2C8C2C13961C921E9212978BE03E
:1006D00091E011969C938E9300D000D0EDB7FEB7B9
:1006E0003196CDB7DEB71982118212821382CD0105
:1006F00061E0432F2FEF052FE72EC12E0E940D033F
:100700000F900F900F900F90DF91CF911F910F914D
:10071000EF90CF90AF908F9008951F920F920FB6E9
:100720000F9211242F933F938F939F93AF93BF9377
:100730008091490190914A01A0914B01B0914C01E7
:1007400030914D010196A11DB11D232F2D5F2D3735
:1007500020F02D570196A11DB11D20934D018093CE
:10076000490190934A01A0934B01B0934C018091B1
:10077000450190914601A0914701B0914801019631
:10078000A11DB11D8093450190934601A09347019F
:10079000B0934801BF91AF919F918F913F912F915D
:1007A0000F900FBE0F901F901895019739F0880F8A
:1007B000991F880F991F02970197F1F70895789470
:1007C00084B5826084BD84B5816084BD85B5826056
:1007D00085BD85B5816085BDEEE6F0E080818160F4
:1007E0008083E1E8F0E010828081826080838081F4
:1007F00081608083E0E8F0E0808181608083E1EBCC
:10080000F0E0808184608083E0EBF0E080818160B3
:100810008083EAE7F0E08081846080838081826069
:100820008083808181608083808180688083109252
:10083000C1000895CF93DF93482F50E0CA01865638
:100840009F4FFC0134914A575F4FFA0184918823EE
:1008500069F190E0880F991FFC01E859FF4FA591BD
:10086000B491FC01EE58FF4FC591D491662351F429
:100870002FB7F8948C91932F909589238C9388812E
:1008800089230BC0623061F42FB7F8948C91932FB9
:10089000909589238C938881832B88832FBF06C0F2
:1008A0009FB7F8948C91832B8C939FBFDF91CF914E
:1008B0000895482F50E0CA0182559F4FFC012491B2
:1008C000CA0186569F4FFC0194914A575F4FFA0127
:1008D0003491332309F440C0222351F1233071F0C5
:1008E000243028F42130A1F0223011F514C0263034
:1008F000B1F02730C1F02430D9F404C080918000D9
:100900008F7703C0809180008F7D8093800010C01E
:1009100084B58F7702C084B58F7D84BD09C0809176
:10092000B0008F7703C08091B0008F7D8093B000BE
:10093000E32FF0E0EE0FFF1FEE58FF4FA591B491AB
:100940002FB7F894662321F48C919095892302C0E7
:100950008C91892B8C932FBF08951F920F920FB605
:100960000F9211242F933F934F938F939F93EF9365
:10097000FF938091C00082FD1DC04091C600209170
:100980008E0130918F012F5F3F4F2F733070809118
:100990009001909191012817390771F0E0918E0133
:1009A000F0918F01E25BFE4F408330938F012093E3
:1009B0008E0102C08091C600FF91EF919F918F91AF
:1009C0004F913F912F910F900FBE0F901F90189550
:1009D000E091E201F091E301E05CFF4F81919191A0
:1009E00020813181821B930B8F739070892B11F0C2
:1009F0000E94D50008951F920F920FB60F921124F6
:100A00002F933F938F939F93EF93FF932091D20166
:100A10003091D3018091D4019091D50128173907E5
:100A200031F48091C1008F7D8093C10014C0E091AA
:100A3000D401F091D501EE56FE4F20818091D40172
:100A40009091D50101968F7390709093D50180930A
:100A5000D4012093C600FF91EF919F918F913F9118
:100A60002F910F900FBE0F901F901895AF92BF92CD
:100A7000DF92EF92FF920F931F93CF93DF93EC01DE
:100A80007A018B01DD24403081EE580780E0680751
:100A900080E0780711F0DD24D39491E0A92EB12CE9
:100AA000EC89FD89DD2069F0C50108A002C0880F2E
:100AB000991F0A94E2F7808360E079E08DE390E08B
:100AC00005C0108260E874E88EE190E0A80197010B
:100AD0000E94830A2150304040405040569547952F
:100AE0003795279580E12030380720F0DD2011F080
:100AF000DD24D6CFE889F9893083EA89FB89208310
:100B000019A2EE89FF89408121E030E0C9010C8CF7
:100B100002C0880F991F0A94E2F7482B4083EE89A0
:100B2000FF894081C9010D8C02C0880F991F0A946A
:100B3000E2F7482B4083EE89FF894081C9010E8C82
:100B400002C0880F991F0A94E2F7482B4083EE8970
:100B5000FF8980810F8C02C0220F331F0A94E2F7B5
:100B6000209528232083DF91CF911F910F91FF9033
:100B7000EF90DF90BF90AF900895DC011C96ED914F
:100B8000FC911D97E05CFF4F219131918081918113
:100B9000281B390B2F733070C9010895DC011C9696
:100BA000ED91FC911D97E05CFF4F20813181E05475
:100BB000F040DF01AE5BBF4F8D919C9111972817DC
:100BC000390719F42FEF3FEF07C08D919C91E80F83
:100BD000F91F8081282F30E0C9010895DC011C969F
:100BE000ED91FC911D97E05CFF4F20813181E05435
:100BF000F040DF01AE5BBF4F8D919C91119728179C
:100C0000390719F42FEF3FEF10C08D919C91119788
:100C1000E80FF91F20818D919C91119701968F7398
:100C2000907011969C938E9330E0C9010895DC0179
:100C300091968C919197882339F05496ED91FC917F
:100C40005597808186FFF9CF91961C920895CF9396
:100C5000DF93EC01EE85FF85E05CFF4F2081318161
:100C6000E054F0402F5F3F4F2F733070DF01AE5BD9
:100C7000BF4F8D919C91119728173907D1F3E05CF4
:100C8000FF4F80819181E054F040E80FF91F6083AD
:100C9000EE85FF85E05CFF4F31832083EE89FF897D
:100CA000208181E090E00F8C02C0880F991F0A9488
:100CB000E2F7282B208381E089A3EC89FD898081DC
:100CC0008064808381E090E0DF91CF91089510925D
:100CD000D9011092D80188EE93E0A0E0B0E08093B3
:100CE000DA019093DB01A093DC01B093DD018BE18D
:100CF00091E09093D7018093D6018EE491E0909398
:100D0000E3018093E20182E991E09093E501809311
:100D1000E40185EC90E09093E7018093E60184EC98
:100D200090E09093E9018093E80180EC90E090934B
:100D3000EB018093EA0181EC90E09093ED018093C8
:100D4000EC0182EC90E09093EF018093EE0186EC51
:100D500090E09093F1018093F00184E08093F201A0
:100D600083E08093F30187E08093F40185E0809332
:100D7000F50181E08093F6010895CF93DF930E94FF
:100D8000DF030E948701C8EED4E00E94F1002097A3
:100D9000E1F30E94E804F9CFCF92DF92EF92FF9245
:100DA0000F931F93CF93DF937C016B018A01C0E007
:100DB000D0E00FC0D6016D916D01D701ED91FC918E
:100DC0000190F081E02DC7010995C80FD91F01508E
:100DD00010400115110571F7CE01DF91CF911F91E0
:100DE0000F91FF90EF90DF90CF900895DC01ED918F
:100DF000FC910190F081E02D09950895EF92FF920A
:100E00000F931F938C01DC01ED91FC910190F08117
:100E1000E02D6DE009957C01D801ED91FC910190E8
:100E2000F081E02DC8016AE009959C012E0D3F1D5F
:100E3000C9011F910F91FF90EF900895AF92BF925B
:100E4000CF92DF92EF92FF920F931F93CF93DF9396
:100E50005C016B01EE24FF24C0E0D0E010C0D5019E
:100E6000ED91FC9100811181C601BE010E947A07BB
:100E7000682FC501F8010995E80EF91E2196F601C3
:100E800084819581C817D90750F3C701DF91CF91AD
:100E90001F910F91FF90EF90DF90CF90BF90AF9098
:100EA0000895EF92FF920F931F937C010E941E07FB
:100EB0008C01C7010E94FE069C01200F311FC90151
:100EC0001F910F91FF90EF900895FC019B01848189
:100ED00095816817790728F4608171816115710522
:100EE00029F41092F80168EF71E002C0620F731FDD
:100EF000CB010895FC01848195816817790748F436
:100F00000190F081E02D309721F0E60FF71F8081EE
:100F1000089580E008950F931F93CF93DF93EC0122
:100F20008B016F5F7F4F888199810E94A209009792
:100F300011F480E005C0998388831B830A8381E0D4
:100F4000DF91CF911F910F910895CF93DF93EC0123
:100F500088819981892B29F08A819B81861797073F
:100F600060F4CE010E948B07882341F08C819D8123
:100F7000892B19F4E881F981108281E0DF91CF910A
:100F80000895EF92FF920F931F93CF93DF93EC019D
:100F90007B016C817D81E114F104C1F041155105A3
:100FA00099F08A01060F171FB8010E94A507882330
:100FB00069F0888199812C813D81820F931FB7014F
:100FC0000E9497001D830C8381E001C080E0DF91C7
:100FD000CF911F910F91FF90EF900895DF93CF93E2
:100FE00000D0CDB7DEB769831A82BE016F5F7F4F35
:100FF00041E050E00E94C1070F900F90CF91DF9128
:101000000895CF93DF93EC0188819981009711F0C7
:101010000E940A09198218821D821C821B821A8270
:10102000DF91CF910895EF92FF920F931F93CF938B
:10103000DF93EC017B018A01BA010E94A507882396
:1010400021F4CE010E94010807C01D830C83888112
:101050009981B7010E949700CE01DF91CF911F9136
:101060000F91FF90EF900895CF93DF93EC011982D9
:1010700018821B821A821D821C821E8261157105D4
:1010800051F0DB010D900020E9F71197A61BB70B7B
:10109000AD010E941308DF91CF9108950F931F9324
:1010A000182F092F6115710559F0DB010D900020F3
:1010B000E9F71197A61BB70BAD010E94130802C0F8
:1010C0000E940108812F902F1F910F910895FC011C
:1010D000808191810E940A0908950F931F93CF93F5
:1010E000DF93BC018230910510F462E070E0E09182
:1010F000FB01F091FC0140E050E0A0E0B0E024C032
:101100008081918186179707D0F08617970771F431
:1011100082819381109729F013969C938E93129756
:101120002CC09093FC018093FB0127C04115510511
:1011300019F08417950718F48D01AC01EF01DF0158
:10114000828193819C01F9013097D1F641155105B7
:10115000F9F0CA01861B970B8430910580F48A81CF
:101160009B810115110521F0F8019383828304C04E
:101170009093FC018093FB01FE01329645C0FE0175
:10118000E80FF91F619371930297998388833CC09C
:101190008091F9019091FA01892B41F4809103012A
:1011A000909104019093FA018093F9014091050117
:1011B000509106014115510541F44DB75EB780913C
:1011C000010190910201481B590B2091F9013091C6
:1011D000FA0124173507B0F4CA01821B930B861756
:1011E000970780F0AB014E5F5F4F8417950750F073
:1011F000420F531F5093FA014093F901F901619393
:10120000719302C0E0E0F0E0CF01DF91CF911F9138
:101210000F910895CF93DF939C01009709F48FC03D
:10122000EC0122971B821A826091FB017091FC01F4
:101230006115710581F488819981820F931F209136
:10124000F9013091FA012817390739F5D093FA01DD
:10125000C093F90174C0DB0140E050E0AC17BD075A
:1012600008F1BB83AA83FE0121913191E20FF31FA4
:10127000AE17BF0779F48D919C911197280F391FF4
:101280002E5F3F4F3983288312968D919C9113973F
:101290009B838A834115510571F4D093FC01C0935F
:1012A000FB014DC012968D919C911397AD01009753
:1012B00011F0DC01D3CFDA011396DC93CE931297B1
:1012C000FA0121913191E20FF31FCE17DF0769F484
:1012D00088819981280F391F2E5F3F4FFA01318392
:1012E00020838A819B8193838283E0E0F0E0DB01AD
:1012F00012968D919C911397009719F0BC01FD01F6
:10130000F6CFAB014E5F5F4FDB018D919C91840F57
:10131000951F2091F9013091FA012817390779F4C6
:10132000309729F41092FC011092FB0102C0138245
:101330001282425050405093FA014093F901DF91DC
:10134000CF9108956F927F928F929F92AF92BF92AA
:10135000CF92DF92EF92FF920F931F93CF93DF9381
:101360008C01009729F4CB010E946D088C01BBC051
:101370008EEFE82E8FEFF82EE00EF11E4801860E5C
:10138000971E8E149F0408F4ACC0D7014D915C9158
:10139000119746175707B8F04530510508F4A3C018
:1013A000CA0104978617970708F49DC04250504021
:1013B000461B570BF401419351936D937C93CF01DE
:1013C0000E940A0990C05B01A41AB50A3801640E94
:1013D000751EA091FB01B091FC01E0E0F0E0CC248F
:1013E000DD2447C0A615B705A9F5CD91DC9111976D
:1013F000CE0102968A159B0568F1CE018A199B09D8
:10140000029612962C91129713963C91059758F0DC
:10141000F40122833383CA19DB09D183C083D70146
:101420006D937C9309C04E5F5F4F4C0F5D1FF701BA
:1014300051834083C901FC01C114D10431F0D601AC
:101440001396FC93EE9312974EC0F093FC01E09339
:10145000FB0149C08D919C911197E817F90708F499
:10146000FC016D0112968C91129713969C919C0130
:10147000D901109709F0B6CF8091F9019091FA0146
:1014800086159705E9F4E617F707D0F420910501D2
:10149000309106012115310541F42DB73EB78091F9
:1014A000010190910201281B390B82169306C8F4A2
:1014B0009092FA018092F901F7017183608313C061
:1014C000CB010E946D08EC01009759F0D7014D91B6
:1014D0005C91B8010E948E00C8010E940A098E0129
:1014E00002C000E010E0C801DF91CF911F910F9181
:1014F000FF90EF90DF90CF90BF90AF909F908F9034
:101500007F906F900895A1E21A2EAA1BBB1BFD01CC
:101510000DC0AA1FBB1FEE1FFF1FA217B307E407D2
:10152000F50720F0A21BB30BE40BF50B661F771F2A
:10153000881F991F1A9469F760957095809590950A
:101540009B01AC01BD01CF010895EE0FFF1F059077
:10155000F491E02D099410E0C6ECD0E004C0FE0147
:101560000E94A70A2296C83CD107C9F7F894FFCF7A
:10157000008000FD010000000000005302CC0600C6
:1015800000400014005400000000002706CC06BDF7
:0815900005EE05CE051706006B
:00000001FF
